S00F0000462D30303030322E73726563B0
S11300000C9442010C9454010C9454010C9454012A
S11300100C9454010C9454010C9454010C94540108
S11300200C9454010C9454010C9454010C945401F8
S11300300C9454010C9454010C9454010C945401E8
S11300400C94D90B0C94E80B0C94F70B0C945401FE
S11300500C94ED070C9454010C941D080C94540159
S11300600C9454010C9454010C94E2010C9454012A
S11300700C94DB090C9454010C940B0A0503100333
S1130080100310031003100310031003FE011003E8
S1130090100310031003100310031003FE011003D8
S11300A010031003100310031003100309021003BC
S11300B0100310031003100310031003370210037E
S11300C0100310031003100310031003090210039C
S11300D0100310031003100310031003370210035E
S11300E01003100310031003100310034302100342
S11300F01003100310031003100310035D02100318
S1130100100310031003100310031003370210032D
S11301101003100310031003100310034F02100305
S11301201003100310031003100310032B02100319
S113013010031003100310031003100377021003BD
S113014010031003100310031003100377021003AD
S1130150100310031003100310031003770210039D
S1130160100310031003100310031003770210038D
S1130170100310031003100310031003850210036F
S1130180100310031003100310031003A302100341
S1130190100310031003100310031003850210034F
S11301A0100310031003100310031003A302100321
S11301B0100310031003100310031003AA0210030A
S11301C0100310031003100310031003C0021003E4
S11301D0100310031003100310031003C0021003D4
S11301E0100310031003100310031003D1021003B3
S11301F0100310031003100310031003F302100381
S1130200100310031003100310031003F60210036D
S11302101003100310031003100310031003100342
S11302201003100310031003100310031003100332
S11302301003100310031003100310031003100322
S11302401003100310031003100310031003100312
S11302501003100310031003100310031003100302
S11302601003100310031003100310030103AA0B5F
S1130270AE0BB20BB60BBA0BBE0BC20BC60BCA0B42
S1130280CE0BD20B11241FBECFEFD0E1DEBFCDBF0A
S113029027E0A0E0B1E001C01D92A63FB207E1F75C
S11302A00E942D0C0C94940C0C94000087E880930D
S11302B07A0010927B008FEF80937E0010927C0076
S11302C01092BB021092BA020895877080937C004A
S11302D086EF8A95F1F7EAE7F0E080818064808315
S11302E0808186FDFDCF80917800909179000895FA
S11302F087EC92E00895CF93FC01C0910201CF5F97
S1130300CF708C2F90E0DC01AA0FBB1FAA0FBB1F7C
S1130310AA0FBB1FA80FB91FA750BD4FBF01685F2D
S11303207F4F80E04C2F50E09A0190819D939191F2
S1130330890FE617F707C1F7FA01EE0FFF1FEE0F5B
S1130340FF1FEE0FFF1F2E0F3F1FF901E750FD4F58
S11303508087C0930201CF9108950E94CE0110922C
S113036001010895BC01E9EBF0E090819E7F908348
S113037090819D7F908389E999E30E94400C862FA8
S1130380603148F0772760517109CB0199230CF44F
S11303900196959587958093B8000895109206016B
S11303A010920501109204011092030184E690E07A
S11303B00E94B20110929D02ECEBF0E08081856412
S11303C0808308951F920F920FB60F9211242F93DA
S11303D03F934F935F936F937F938F939F93AF93C9
S11303E0BF93EF93FF938091B900E82FE87F8E2F9E
S11303F090E0FC01E25CFF4F0C94540C80919B0252
S11304008093BB00ECEBF0E080818F708068808388
S113041007C1E091D2018091D101E81788F481E00D
S11304208E0F8093D201F0E0ED52FE4F80818093D5
S1130430BB00ECEBF0E080818F708068808308C0A3
S1130440ECEBF0E080818F70806D808310929D02D0
S113045010929C02E5C0E091080181E08E0F809328
S113046008018091BB00F0E0E75FFE4F8083ECEB76
S1130470F0E080818F70806D808310929D0282E015
S113048080939C02CDC0ECEBF0E080818F7080689B
S1130490808310929D0281E080939C02C1C0E09110
S11304A0080181E08E0F809308018091BB00F0E089
S11304B0E75FFE4F808310929C022091080130E098
S11304C08091070190E00197281739073CF4ECEB81
S11304D0F0E080818F70806C808306C0ECEBF0E0EC
S11304E080818F708068808310929C0299C085E01F
S11304F080939D0210920801ECEBF0E080818F70F4
S1130500806C808310929C028BC0E091080181E092
S11305108E0F809308019091BB00F0E0E75FFE4FDF
S11305209083883C38F4ECEBF0E080818F70806C31
S1130530808306C0ECEBF0E080818F70806880835C
S113054010929C026DC0ECEBF0E080818F708068AB
S1130550808366C0ECEBF0E080818F70806C8083D8
S1130560E0910501F0910601309729F069E071E00E
S113057080910801099510929D0210929C0250C02E
S113058084E080939D02E0910301F091040130978F
S113059031F063ED71E088EC09958093D1011092FC
S11305A0D201E091D20181E08E0F8093D201F0E07C
S11305B0ED52FE4F80818093BB009091D2018091D7
S11305C0D101981738F4ECEBF0E080818F70806CE7
S11305D0808306C0ECEBF0E080818F7080688083BC
S11305E010929C021DC082E080939C02ECEBF0E030
S11305F080818F70806C808310929D0210929C0287
S11306000FC084E080939C020BC0ECEBF0E080818F
S11306108F70806D808310929D0283E080939C0292
S1130620FF91EF91BF91AF919F918F917F916F91C6
S11306305F914F913F912F910F900FBE0F901F909C
S11306401895E9E8F3E084E1808385E08183A6E4FA
S1130650B7E08C91848311968C91119785831296BF
S11306608C91868380919E028783CF010E943309F7
S113067008950E94BB048F3019F08E3FA9F00895AD
S11306808091DA03883048F40E946501AC0160E08F
S113069070E084E60E94A504089540E050E0BA01A9
S11306A083E00E94A50408958091DA03813099F0D3
S11306B028F0823019F1833051F108954091C60237
S11306C050E060E070E0762F652F542F442784E6D5
S11306D00E94A5040895909101014091AF02809178
S11306E0A40250E060E070E0762F652F542F442779
S11306F0692B482B84E60E94A504089510920101F9
S11307001092AF021092A4020E94970708950E94CB
S1130710210308958091A5038823F9F080919C0317
S113072081110EC0ECE9F3E0A8EDB3E025EA33E073
S113073081918D93E217F307D9F70E9439030BC017
S1130740813428F48CE993E00E945D0B04C08CE9A9
S113075093E00E947B011092A503089580919B036E
S1130760882331F082E993E00E94330910929B03BD
S113077008958091A30284FF05C08091A3028F7E17
S11307808093A3028091A30283FF11C00E941109E8
S1130790DC01ECE9F3E025EA33E08D918193E21783
S11307A0F307D9F70E94220981E08093A5030895F5
S11307B080919B03811114C08091A102882381F050
S11307C01092A102A8ECB3E0E2E9F3E02BE933E0F4
S11307D08D918193E217F307D9F781E080939B030E
S11307E008958091AE0284FF0AC08091AE028F7E8C
S11307F08093AE0280919E02805F80939E028091DE
S11308009B0381111AC08091AE0283FF16C08091B0
S11308109E028F5F80939E020E942F0BDC01E2E90F
S1130820F3E02BE933E08D918193E217F307D9F7D5
S11308300E944C0B81E080939B03089580910001FA
S113084084FF05C0809100018F7E80930001809118
S11308509B03811118C08091000183FF14C00E9482
S11308607801DC01E2E9F3E02BE933E08D91819337
S1130870E217F307D9F780910001877F8093000185
S113088081E080939B03089510929B031092A5032B
S113089008950E94B9030E948A030E94D8030E940B
S11308A0F1030E941E040E94AE03089580E987BDEF
S11308B084E688BD82E084BD85E085BDEEE6F0E097
S11308C08081826080830895E8ECF3E020ED33E0DA
S11308D080E09191890FE217F307D9F78093D00351
S11308E00895CF93DF93EC019093E2038093E103A7
S11308F045E050E0BC0181ED93E00E945A0C8091E8
S1130900D103823481F0E1EDF3E082E4808311824B
S113091081E08283138282E0848345E050E0BE015B
S1130920CF010E947C0CE0919F02F091A0023097CD
S113093019F08091D20309958091D5038093E30344
S11309401092D703DF91CF910895E8ECF3E09091F2
S1130950E30390839091D703918382838091D90399
S1130960838374836583568347830E94640481E090
S11309708093A10208950F931F93CF93DF931F9247
S1130980CDB7DEB7E8EDF3E08481458150E060E067
S113099070E0BA0155274427782B8781482B86813C
S11309A0582B4093C4035093C5036093C6037093BC
S11309B0C7031181193009F4A5C178F4143009F47E
S11309C0AFC228F41130F1F0123019F1A2C215307F
S11309D039F1163009F46CC09CC21E3009F4E1C030
S11309E038F41A3009F42FC21D3009F499C291C2A7
S11309F0183809F46CC21E3F09F492C21F3009F082
S1130A0088C20EC140E050E0BA0184E60E94A50409
S1130A1087C240E050E0BA0184E60E94A50480C287
S1130A201091DB03112341F040E050E0BA0184E06F
S1130A300E94A50410E074C28091DA038630E9F0C4
S1130A4028F4843041F0853079F02BC08730F1F000
S1130A508C3829F126C04093AF035093B0036093C0
S1130A60B1037093B2031DC04093B3035093B40316
S1130A706093B5037093B60314C04093B7035093C7
S1130A80B8036093B9037093BA030BC04093BB03DC
S1130A905093BC036093BD037093BE0302C04093A4
S1130AA0BF0340E050E0BA0184E60E94A50438C2C6
S1130AB01091DB03112341F040E050E0BA0184E0DF
S1130AC00E94A50410E02CC28091DA03863049F11B
S1130AD030F48430F1F1C8F4813059F05BC08C38C3
S1130AE009F443C0843C09F449C0873009F052C07A
S1130AF024C04091AB035091AC036091AD0370915D
S1130B00AE0384E60E94A5040BC24091B303509146
S1130B10B4036091B5037091B60384E60E94A50402
S1130B20FFC14091B7035091B8036091B90370912C
S1130B30BA0384E60E94A504F3C14091BB0350911B
S1130B40BC036091BD037091BE0384E60E94A504BA
S1130B50E7C14091AF035091B0036091B10370912C
S1130B60B20384E60E94A504DBC14091BF0350E0B8
S1130B7060E070E084E60E94A504D2C14091C00305
S1130B805091C1036091C2037091C30384E60E9433
S1130B90A504C6C140E050E0BA0184E00E94A50467
S1130BA0BFC18091DB03823039F040E050E0BA01EC
S1130BB084E00E94A504B4C18091DA03882319F06B
S1130BC08130A1F026C091E0452B462B472B09F438
S1130BD090E08091A60390FB80F98093A60340E007
S1130BE050E0BA0184E60E94A5049AC191E0452B25
S1130BF0462B472B09F490E08091A60390FB81F9E2
S1130C008093A60340E050E0BA0184E60E94A50464
S1130C1087C140E050E0BA0184E00E94A50480C18D
S1130C200091DB03013009F47BC128F0023009F4A0
S1130C3044C010E075C11091DA03113081F028F03E
S1130C401230C9F0133021F130C04091D603417005
S1130C5050E060E070E084E60E94A50461C1409128
S1130C60D6034695417050E060E070E084E60E944F
S1130C70A504102F55C14091D60342FB442740F9E7
S1130C8050E060E070E084E60E94A504102F48C1A3
S1130C904091D60343FB442740F950E060E070E004
S1130CA084E60E94A504102F3BC140E050E0BA0145
S1130CB084E00E94A504102F33C11091DA0311239C
S1130CC019F0113059F016C04091A603417050E05C
S1130CD060E070E084E60E94A50422C14091A6036E
S1130CE04695417050E060E070E084E60E94A504FF
S1130CF010E016C140E050E0BA0184E00E94A5046F
S1130D0010E00EC11091DB03112341F040E050E0EC
S1130D10BA0184E00E94A50410E002C18091DA03C4
S1130D20813451F118F4803441F086C0823409F4DE
S1130D3043C08C3409F460C07FC08091D10390E03B
S1130D40A0E0B0E0481759076A077B0771F0E1EDAE
S1130D50F3E040831982608129818091E1039091BD
S1130D60E203820F911D0E946A0C40E050E0BA0138
S1130D7084E60E94A504D4C08091D20390E0A0E050
S1130D80B0E0481759076A077B0779F0E1EDF3E013
S1130D90418381E08983618129818091E10390917C
S1130DA0E203820F911D0E946A0C40E050E0BA01F8
S1130DB084E60E94A504B4C08091D30390E0A0E02F
S1130DC0B0E0481759076A077B0779F0E1EDF3E0D3
S1130DD0428382E08983628129818091E103909139
S1130DE0E203820F911D0E946A0C40E050E0BA01B8
S1130DF084E60E94A50494C08091D50390E0A0E00D
S1130E00B0E0481759076A077B0779F0E1EDF3E092
S1130E10448384E08983648129818091E1039091F2
S1130E20E203820F911D0E946A0C40E050E0BA0177
S1130E3084E60E94A50474C040E050E0BA0184E056
S1130E400E94A5046DC01091DB03112341F040E022
S1130E5050E0BA0184E00E94A50410E061C08091D2
S1130E60DA03813449F018F4803409F129C082345A
S1130E7061F08C3499F024C04091D20350E060E0DA
S1130E8070E084E60E94A5044BC04091D30350E077
S1130E9060E070E084E60E94A50442C04091D5035E
S1130EA050E060E070E084E60E94A50439C04091FF
S1130EB0D10350E060E070E084E60E94A50430C0F5
S1130EC040E050E0BA0184E00E94A50429C01091DA
S1130ED0DA03111115C0E8ECF3E08091E303808399
S1130EE081E3818390E3928322E32383848336E541
S1130EF0358386832783908781E08093A10210C085
S1130F0040E450E360E270E184E60E94A50410E04E
S1130F1007C040E050E0BA0182E00E94A50410E05E
S1130F20812F0F90DF91CF911F910F91089540E091
S1130F3050E0BA0184E60E94A50408959091AC02A1
S1130F409F5F9F77E92FF0E0E35FFA4F80819093F2
S1130F50AC0208959091AB029F5F9F77E92FF0E078
S1130F60E35FFA4F80839093AB0208959091AA02B5
S1130F70E92FF0E0EC51FC4F80819F5F9093AA022F
S1130F8008958091A30280FD0BC08091A30281602B
S1130F908093A3021092AA020E94B6078093C6000F
S1130FA00895882331F0E1ECF0E08081806880834B
S1130FB00895E1ECF0E080818F77808308958823A1
S1130FC031F0E1ECF0E08081806480830895E1EC0D
S1130FD0F0E080818F7B808308951F920F920FB67B
S1130FE00F9211242F933F934F935F936F937F93AB
S1130FF08F939F93AF93BF93EF93FF9385E0809379
S1131000A5028091C0009091A402892B8093A40230
S11310108091C6000E94AA07FF91EF91BF91AF9102
S11310209F918F917F916F915F914F913F912F91FC
S11310300F900FBE0F901F9018951F920F920FB62E
S11310400F9211242F933F934F935F936F937F934A
S11310508F939F93AF93BF93EF93FF938091A302DA
S113106080FF0EC08091AA02893030F08091A302E3
S11310708E7F8093A30204C00E94B6078093C600AB
S1131080FF91EF91BF91AF919F918F917F916F915C
S11310905F914F913F912F910F900FBE0F901F9032
S11310A0189587E08093C400E1ECF0E080818861CA
S11310B0808381E00E94D10781E00E94DF071092C3
S11310C0A4020895CF92DF92FF920F931F93CF93C0
S11310D0DF938091A9029091A802981741F1909111
S11310E0A30290FD24C08F5F482F4F71842F90E09E
S11310F09C01220F331F220F331F220F331F280F8F
S1131100391F23573A4FB901675F7F4FF901DF0158
S1131110A21BB30B8191AC51BC4F8C93E617F7071C
S1131120B1F74093A9021092AA020E94C1078091CC
S1131130A30283FD56C08091AB029091AC02891B3F
S11311408F77893008F44DC0F090A60281E08F0DAE
S11311508F71F82E082F10E0E801CC0FDD1FCC0FA3
S1131160DD1FCC0FDD1FC00FD11FC351DC4F6E013B
S113117089E0C80ED11C0E949E078993CC15DD0519
S1131180D1F7EF2DF0E0CF01880F991F880F991F39
S1131190880F991FE80FF91FE351FC4F90E080E09E
S11311A02191920F8F5F8830D9F7F801EE0FFF1F5E
S11311B0EE0FFF1FEE0FFF1F0E0F1F1FF801E3516D
S11311C0FC4F8085891308C08091A30288608093B6
S11311D0A302F092A60205C08091A30280618093CD
S11311E0A302DF91CF911F910F91FF90DF90CF90D9
S11311F008958091A502882341F08091A502815031
S11312008093A5021092A20208958091A2028111F6
S113121007C08091AB028093AC0281E08093A2026C
S113122008958091A7028F5F8F7190E09C01220F37
S1131230331F220F331F220F331F820F931F83513B
S11312409C4F08959091A7029F5F9F719093A7026E
S11312508091A602891B8F7129F49091A302977F34
S11312609093A30208954091A8024F5F4F71DC014F
S1131270242F30E0F901EE0FFF1FEE0FFF1FEE0FDA
S1131280FF1FE20FF31FE357FA4F2F5F3F4FC901D0
S1131290880F991F880F991F880F991F280F391FCE
S11312A023573A4F8D918193E217F307D9F740936F
S11312B0A80208959091B7028091B802981307C0CC
S11312C08091AD0288608093AD0280E00895909192
S11312D0B8029F5F9F71E92FF0E0EA52F84F8081D6
S11312E09093B80208952091B7024091B80230E07B
S11312F02F5F3F4F2F71332750E02417350731F408
S11313008091AD0284608093AD0208959091B702FC
S11313109F5F9F71E92FF0E0EA52F84F808390932A
S1131320B70208958091B602893038F08091AD02F9
S113133082608093AD0280E00895E091B602F0E00F
S1131340E355F94F80819091B6029F5F9093B60266
S113135008958091AE0280FD11C08091AE0281603B
S11313608093AE02E9ECF0E080818F7E80835C9A0A
S11313701092B6020E9492098093CE0008958823A9
S113138031F0E9ECF0E08081806880830895E9EC35
S1131390F0E080818F7780830895882331F0E9EC31
S11313A0F0E08081806480830895E9ECF0E080813E
S11313B08F7B808308951F920F920FB60F92112492
S11313C02F933F934F935F936F937F938F939F9349
S11313D0AF93BF93EF93FF9385E08093B102809125
S11313E0C8009091AF02892B8093AF028091CE0008
S11313F00E947309FF91EF91BF91AF919F918F91DB
S11314007F916F915F914F913F912F910F900FBEFC
S11314100F901F9018951F920F920FB60F921124E0
S11314202F933F934F935F936F937F938F939F93E8
S1131430AF93BF93EF93FF938091AE0280FF1CC0E4
S11314408091B6028930A0F08091AE028E7F8093A5
S1131450AE0282E38093B0028091AE0284608093F6
S1131460AE025C98E9ECF0E080818061808304C086
S11314700E9492098093CE00FF91EF91BF91AF91AA
S11314809F918F917F916F915F914F913F912F9198
S11314900F900FBE0F901F90189587E18093CC009A
S11314A0E9ECF0E080818861808381E00E94BF09DB
S11314B081E00E94CD091092AF020895BF92CF92AD
S11314C0DF92EF92FF920F931F93CF93DF9380915C
S11314D0B5029091B402981759F19091AE0290FD23
S11314E027C09091AE0292FD23C08F5F8F70282F8A
S11314F030E0A901440F551F440F551F440F551FD9
S1131500240F351F2A54394F8093B502A901475F30
S11315105F4FF901DF01A21BB30B8191A355B94FB2
S11315208C93E417F507B1F71092B6020E94A9094B
S11315308091AE0283FD68C08091B7029091B80299
S1131540891B8F71893008F45FC0B090B20281E0CA
S11315508B0D8F70B82EE82EF12CE701CC0FDD1F18
S1131560CC0FDD1FCC0FDD1FCE0DDF1DCA5BD84FA6
S11315702FEFE21AF20AC701880F991F880F991FEB
S1131580880F991F8E0D9F1D9C012A5B384F79018E
S1131590CB2CD12C86010E945A098993CE15DF05E4
S11315A0C9F7B092B202F601EE0FFF1FEE0FFF1F54
S11315B0EE0FFF1FEC0DFD1DEA5BF84F90E080E09D
S11315C02191920F8F5F8830D9F7F801EE0FFF1F3A
S11315D0EE0FFF1FEE0FFF1F0E0F1F1FF801EA5B38
S11315E0F84F808589130BC08091AE028860809388
S11315F0AE028091AE028B7F8093AE0205C08091D3
S1131600AE0280618093AE02DF91CF911F910F9162
S1131610FF90EF90DF90CF90BF9008958091AE023D
S113162082FF0EC08091B00281508093B0028091FD
S1131630B002811105C08091AE028B7F8093AE020F
S11316408091B102882331F08091B102815080935E
S1131650B10208958091B7028093B80208958091F1
S1131660B3029091B202981308C08091AD028068D1
S11316708093AD0280E090E008958F5F8F7090E0DA
S11316809C01220F331F220F331F220F331F820F9F
S1131690931F8A5B984F08959091B3029F5F9F7048
S11316A09093B3028091B202891B8F7029F49091B8
S11316B0AE02977F9093AE020895CF93DF93FC011F
S11316C04091B402842F90E001968F709927209165
S11316D0B50230E08217930731F48091AD02806146
S11316E08093AD022BC04F5F4F70842F90E0DC01DC
S11316F0AA0FBB1FAA0FBB1FAA0FBB1FA80FB91F9E
S1131700AA54B94FEF01289680E0642F70E09B0142
S113171090819D939191890FEC17FD07C1F7FB010F
S1131720EE0FFF1FEE0FFF1FEE0FFF1F2E0F3F1FC9
S1131730F901EA54F94F80874093B402DF91CF91C5
S1131740089590E08B30910580F5FC01E95CFE4F33
S11317500C94540C8FE58093CC0008958FE3809310
S1131760CC0008958FE28093CC0008958FE180939C
S1131770CC00089587E18093CC0008958FE0809396
S1131780CC0008958BE08093CC00089587E080938B
S1131790CC00089583E08093CC00089582E0809388
S11317A0CC0008951092CC0008958FE28093CC0071
S11317B008951F920F920FB60F9211248F9381E018
S11317C08093B9028F910F900FBE0F901F901895C0
S11317D01F920F920FB60F9211248F9381E0809382
S11317E0B9028F910F900FBE0F901F9018951F9202
S11317F00F920FB60F9211248F9381E08093B90258
S11318008F910F900FBE0F901F9018958091B90281
S1131810882331F01092B9020E94F9080E940E0B3D
S1131820089581E084B98AE18AB90E9451080E942E
S11318304D0A0E94AD010E9456010E94560481EA9D
S11318409BE09093A00280939F0280E190E00E942D
S113185071040E944404789408950E94110C2898FD
S11318600E9449040E94060C0E9462080E945E0ABB
S11318708091A60380FF02C0289AF2CF2898F0CF67
S1131880AA1BBB1B51E107C0AA1FBB1FA617B707A2
S113189010F0A61BB70B881F991F5A95A9F78095BE
S11318A09095BC01CD010895EE0FFF1F0590F491B2
S11318B0E02D0994DC01CB01FC01F999FECF06C0AF
S11318C0F2BDE1BDF89A319600B40D9241505040FA
S11318D0B8F70895262FF999FECF92BD81BDF89AE5
S11318E0019700B4021639F01FBA20BD0FB6F89460
S11318F0FA9AF99A0FBE0895DC01CB0103C02D9129
S11319000E94870C41505040D0F70895262FF99932
S1131910FECF1FBA92BD81BD20BD0FB6F894FA9ACE
S10F1920F99A0FBE01960895F894FFCFC9
S9030000FC
